:100417001207BCBF02FAD2EAD2B9D2AF7F011206E5
:1004270065E580F4F5087B007A0079087D031208FA
:010437007450
:0E043800750B14D2E8AF0B150BEF70F9C2E88C
:09044600754F01E54F60DB80FAFF
:03004B0002032588
:10032500C0E0C0F0C083C082C085C084C086758629
:1003350000C0D075D000C000C001C002C003C00419
:06034500C005C006C00760
:10034B0012078CEF24F0600624F07008800312086B
:04035B0051754F0089
:10035F00D007D006D005D004D003D002D001D000F2
:10036F00D0D0D086D084D085D082D083D0F0D0E0CA
:01037F00324B
:0A07F7008FE7E5E630E1FBAFE722F3
:020648008F3DE4
:10064A00E4FF12069F8F3EE53DB40105433E01805B
:0B065A0003533EFEAD3EE4FF020682AB
:020665008F0CF8
:10066700E4FF12069F8F0DE50CB40105430D0280D0
:0B06770003530DFDAD0DE4FF020682F1
:0204BB008F3F71
:1004BD00E4FF12069F8F40E53F14600C1460112479
:1004CD000270135340F7800E4340085340FB8006E3
:0D04DD00434008434004AD40E4FF020682A6
:0402BD008F378D38B2
:1002C100E4FF12069F8F39E53724FB601E1460336B
:1002D10024027049E53860047F0080027F01EF54F9
:1002E10001C454F0FFE53954EF802FE53860047FF5
:1002F1000080027F01EF5401C43354E0FFE539541B
:10030100DF8017E53860047F0080027F01EF540130
:10031100C4333354C0FFE53954BF4FF539AD39E427
:04032100FF0206824F
:0B078C007D707F07120682EF5470FFA3
:01079700223F
:1006B9007D707F07120682EF5470F5507F0712068E
:0806C9009FEF540F4250AF50A7
:0106D1002206
:10073D007401A807088002C333D8FCFD7F070206A9
:01074D008229
:0808650012085BEF5470FF2242
:040380008F2B8D2C06
:100384007F0212069F8F2D7F0112069F8F2EE52B71
:1003940024FA500624076021802EAF2B7401A8078D
:1003A400088002C333D8FCFF422DE52C6005EF42E0
:1003B4002E8015EFF4522E800F752D3FE52C60052D
:1003C400752E3F8003E4F52EAD2D7F02120682AD1B
:0603D4002E7F01020682EB
:020003008F3A32
:100005007F0212069F8F3B7F0112069F8F3CE53AC8
:1000150024FA5006240760168019AF3A7401A80720
:10002500088002C333D8FCF4523B523C8005E4F50A
:100035003BF53CAD3B7F02120682AD3C7F010206DB
:010045008238
:1003DA008F2F8B308A318932E52F14600A24FB5023
:1003EA00196004240670251208018F10E52F242AAB
:1003FA00FFAB30AA31A932020184E52F240AFFABF0
:0D040A0030AA31A932120540FD12068222EF
:100486008F338B348A358936E53314600824FB6054
:10049600042406700BAB34AA35A936AF3302004EDE
:1004A600E533240AFF12069FAB34AA35A936EF12AC
:0504B60005597F012241
:02060800AB073E
:10060A00EC540FC454F0FFE551540F4FF551EB541D
:10061A000FFFE55154F04FF551AD517F04020682A8
:1006D200E4F552EF24FE5403FFE55254FC4FF55269
:0706E200AD527F0302068206
:0A0801007F0312069FEF2402FF227E
:07086D00EF2411FF020682D7
:02022D008F211F
:10022F007F0212069F8F227F0112069F8F23E521E7
:10023F0014601A14602714603414604314604E2441
:10024F0005705EE5225401F524E523804EAF22EFC1
:10025F00C3135401F524AF23EFC313803EAF22EF36
:10026F0013135401F524AF23EF1313802EAF22EF96
:10027F001313135401F524AF23EF131313801CAF83
:10028F0022EFC45401F524AF23EFC4800EAF22EF49
:10029F00C4135401F524AF23EFC4135401F5258083
:0D02AF0005E4F524F525E52525E02524FFCF
:0102BC00221F
:060882007F0812069F2210
:1006E9007F0812069FEF54F0FFE4C4F854F0C8EFF6
:0606F900C4540F48FF226B
:10044F00EF146014146015146016146017146018FC
:10045F002405701D7F1180127F12800E7F13800A7A
:10046F007F1480067F1580027F1612069F8F5380A0
:06047F0003E4F553AF5346
:010485002254
:10071500E4F554EF547FFFE55454804FF554AD5440
:050725007F05020682C1
:02062A008F41FE
:10062C007F0612069F8F42E541540325E0FFE54209
:0C063C0054F94FF542AD427F06020682E1
:0204EA008F433E
:1004EC007F0612069F8F44E543600924FE700D437E
:1004FC00442080035344DF5344F780065344DF43C6
:09050C004408AD447F060206829A
:0A080B007F1712069FEF5401FF2231
:0C0798007F1712069FEFC3135401FF22CD
:0B07EC007F1712069FEFC45401FF228C
:0C07A4007F1712069FEFC4135401FF22C0
:1006FF007F1712069FEF5430FFE4C4F854F0C8EF91
:06070F00C4540F48FF2254
:0A0815007F1712069FEF5403FF2225
:060888007F1712069F22FB
:0A081F007F0812069FEF540FFF221E
:0A0829007F0912069FEF5401FF2221
:010046002297
:0C07B000EF543FF555AD557F1C0206824A
:02056B008F45BA
:10056D007F1D12069F8F46E54560047F0180027F47
:10057D0000EF540125E025E0FFE54654FB4FF5461D
:07058D00AD467F1D0206824E
:0205BC008F4767
:1005BE007F1D12069F8F48E54760047F0180027FF2
:1005CE0000EF540125E0FFE54854FD4FF548AD48D6
:0505DE007F1D020682F2
:0205E3008F493E
:1005E5007F1D12069F8F4AE54960047F0180027FC7
:1005F50000EF5401FFE54A54FE4FF54AAD4A7F1D11
:0306050002068268
:070874008D107FA00201843A
:07087B008D107FB002018423
:0A083300EF44A8FF852A100201849B
:06088E007F6012069F22AC
:060894007F0812004E2255
:0E077E0012085BEF540EFFE4C313EF13FF22CB
:0A083D00C2E97FE31207F7D2E922B7
:10072A001208887E00EF54407806CEC313CE13D841
:03073A00F9FF22A2
:0A084700C2E97FE21207F7D2E922AE
:0A085100C2E97FE11207F7D2E922A5
:09085B00C2E97FFF1207F7D2E9A0
:010864002271
:020594008F4B8B
:100596007F0612069F8F4CE54B60047F0180027F29
:1005A60000EF5401C454F0FFE54C54EF4FF54CAD49
:0605B6004C7F06020682E4
:020515008F4D08
:100517007F0612069F8F4EE54D60047F0180027FA4
:1005270000EF5401C43333335480FFE54E547F4FFB
:09053700F54EAD4E7F060206826E
:10069F00C2E98FE7E5E6540260FAAFE7E4F5E7E574
:0906AF00E6540260FAAFE7D2E95B
:0106B800221F
:10068200C2E9EF2420F5E7E5E6540260FAAFE78D10
:0C069200E7E5E6540260FA85E756D2E97D
:01069E002239
:08004E008F158B168A17891823
:10005600751D0185161BE51514600C24FB6008242C
:10006600FE60142408702C1208018F198F1AC2E939
:10007600E515240AFF801712077E8F15E515C39430
:1000860007501012088E8F198F1AC2E97F61120766
:0C009600F78005E4F51AF519E51B702849
:1000A20085181EE4F5E7E51D7008A81EA61C051EAE
:1000B2008003E4F51DE5E6540260FA85E71CD519D4
:0500C200E2A81EA61CCF
:0900C70002017BE51B6401703AA3
:1000D00085171E85181FE4F5E7E51D7013851F823F
:1000E000851E83E51CF0051FE51F7007051E8003B4
:1000F000E4F51DE5E6540260FA85E71CD519D785BD
:080100001F82851E83E51CF03F
:080108008071E51B64FE702903
:1001100085181EE4F5E7E51D7009A81EE51CF2052B
:100120001E8003E4F51DE5E6540260FA85E71CD560
:0701300019E1A81EE51CF215
:02013700804204
:1001390085161E85171F851820E4F5E7E51D70183B
:10014900AB1EAA1FA920E51C12055974012520F52B
:1001590020E4351FF51F8003E4F51DE5E654026030
:10016900FA85E71CD519D2AB1EAA1FA920E51C12D6
:02017900055926
:08017B00D2E9E515FEE51AFFCB
:010183002259
:060184008B0D8A0E890FAD
:09018A00AD0DC2E98FE7ED70191B
:10019300850F12A812E6FE0512E5E6540260FA8501
:0701A300E7118EE7D510EC17
:0701AA008075ED6401702671
:1001B100850E12850F13851382851283E0FE0513C8
:1001C100E51370020512E5E6540260FA85E7118E27
:0401D100E7D510E27C
:0701D500804AED64FE701981
:1001DC00850F12A812E2FE0512E5E6540260FA85BC
:0701EC00E7118EE7D510ECCE
:0201F300802C5E
:1001F500850D12850E13850F14AB12AA13A91412BF
:100205000540FE74012514F514E43513F513E5E6F0
:0C021500540260FA85E7118EE7D510DD79
:0B022100E5E6540260FA85E711D2E91F
:01022C0022AF
:10075F00EF6009E5A3448054F7F5A32253A3772252
:10074E00EF5401C4333354C0FFE5A354B74FF5A3A0
:01075E002278
:0F076F00EF5403C454F0FFE5A354C74FF5A32282
:0B07BC00E5AD30E3047F0280027F0106
:0107C700220F
:0C07C800EF5407FFE5A354F04FF5A32207
:06089A00E5AD5480FF22D1
:0608A000E5AD5440FF220B
:0C07D400EF5407FFE5AD54F84FF5AD22DF
:030000000207E014
:0C07E000787FE4F6D8FD758156020417FE
:10054000BB010689828A83E0225002E722BBFE02B9
:09055000E32289828A83E49322EC
:10055900BB010689828A83F0225002F722BBFE0181
:02056900F3227B
:00000001FF
